:020000040800F2
:100000007804002001010008791900089113000804
:100010007519000855010008412300080000000080
:100020000000000000000000000000003523000870
:1000300059010008000000000D1A000839230008CB
:100040001B0100081B0100081B0100081B01000820
:100050001B0100081B0100081B0100081B01000810
:100060001B0100081B0100081B0100081B01000800
:100070001B0100081B0100081B0100081B010008F0
:100080001B0100081B0100081B0100081B010008E0
:100090001B0100081B0100081B0100081B010008D0
:1000A0001B0100081B0100081B0100081B010008C0
:1000B0001B0100081B0100081B0100081B010008B0
:1000C0001B0100081B0100081B0100081B010008A0
:1000D0001B0100081B0100081B0100081B01000890
:1000E0001B0100081B0100081B010008DFF80CD0F1
:1000F00000F018F800480047652700087804002041
:100100000648804706480047FEE7FEE7FEE7FEE7B1
:10011000FEE7FEE7FEE7FEE7FEE7FEE73D23000819
:10012000ED0000081CB509480090094801900546FB
:10013000009C06E0E06840F0010394E8070098475F
:100140001034AC42F6D3FFF7D5FF00009429000825
:10015000B4290008FEE7000070470000B0B504466F
:1001600000F0A8F9054640F20400C2F20000007851
:10017000611C18BF044400BF00F09CF9401BA04262
:10018000FAD3B0BD002908BF70472DE9F04F81B008
:1001900040F2004941F20042C4F20109C4F20102F6
:1001A00090424FF004024FF000046FF01F05A9F5D4
:1001B0007E7708BF032200921BE000BF0246BBF51A
:1001C000807F24BF0432AA4616680F2303FA0AF37D
:1001D00026EA0303042606FA0AF633431360C268CC
:1001E00022EA0B02C260013431FA04F205F104057F
:1001F00054D0012202FA04F616EA010BF3D024F0DF
:10020000030640F6000257F806C0C4F2010290420D
:1002100013D040F60042C4F2010290420AD041F2EB
:100220000002C4F20102DDF80080904208BF4FF0E6
:10023000020804E04FF0010801E04FF0000805F16A
:10024000200A0AF00C060F2202FA06FE0CEA0E0241
:1002500008FA06F6B242B1D1D9F8002040F20C43B8
:1002600022EA0B02C9F80020D9F80420C4F20103E5
:1002700022EA0B02C9F804201A68A60822EA0B0237
:100280001A60D9F8082022EA0B02C9F8082057F8AA
:10029000262022EA0E0247F826208FE701B0BDE8AB
:1002A000F04F70472DE9F04F82B00E68002E00F03D
:1002B000F78041F20042C4F20102042340F2004EF2
:1002C000904208BF03234FF6FF7CC4F2010E009357
:1002D00000240123C1F2100C4FF0000A4FF0000976
:1002E0004AE041F20002C4F20102009F904208BFBE
:1002F000022704F00C030F229A402BEA020207FAAD
:1003000003F34FEA9A051A4346F825204E6840F257
:100310000C45F202DEF8082054BF22EA080242EA45
:100320000802C4F20105CEF808202A68B30254BFBF
:1003300022EA080242EA08022A60B303DEF8042037
:1003400054BF22EA080242EA0802F303CEF804206E
:10035000DEF800204FF0010354BF22EA080242EA0F
:100360000802CEF800200E680AF1010A36FA0AF2F5
:1003700004F1040400F0948003FA0AFB16EA0B0867
:10038000F1D04E68664511DC122E51D8DFE806F038
:10039000340A4946505050505050505050505050D0
:1003A00050424D00D1F80C9042E000BF4FF6FF7272
:1003B000C1F2210296420FDC0022C1F211029642E4
:1003C0001AD00022C1F21202964215D00022C1F2C8
:1003D0002102964210D02BE00022C1F22202964266
:1003E0000AD00022C1F23102964205D00022C1F2A9
:1003F000320296421CD100BF8A6842B1012A14BF62
:10040000C0F814B0C0F810B04FF0080910E04FF079
:1004100004090DE0CA6802F1040909E04FF000097F
:1004200006E0CA6802F1080902E0CA6802F10C0994
:1004300002462646B8F5807F24BF0432203E176866
:100440000F25B54027EA050509FA06F6354315607C
:10045000CA79D2067FF587AF41F21803C4F20203CE
:100460001A68AEF57E7642F001021A601A6802F050
:1004700001020192019A2AF0030256F802B040F6F6
:100480000002C4F20102904208D040F60042C4F2D9
:10049000010290427FF425AF01272AE7002728E7D1
:1004A00002B0BDE8F08F0000002A08BF0904016116
:1004B0007047000040F26C00C2F200000068704714
:1004C000002804BF0120704710B5242180F83D109A
:1004D000016804460A6822F001020A6000F0B2FBDB
:1004E0000020206484F83D00206384F83E0084F8F6
:1004F0003C0010BD002804BF01207047F0B581B05A
:10050000044690F83D0028B9002084F83C002046BD
:1005100000F0B6FB242084F83D002068016821F03B
:1005200001010160016841F400410160016821F4AA
:100530000041016000F066FD636848F2A16CC0F202
:10054000010C40F60011C0F23D0163453CBF48F28A
:100550008041C0F21E01884202D2012001B0F0BDEC
:100560004DF68361C4F21B31A0FB01122168970C88
:10057000D1F804E04FF496762EF03F0545EA924517
:100580004D60774348F638160D6AC0F24106A7FB66
:10059000067625F03F07634538BF960C721C3A4338
:1005A0000A62CA6948F2A0664CF6FF77C0F20106FB
:1005B000B34222EA070C0AD801385A00B0FBF2F025
:1005C00001306FF31F30042898BF042020E0A26898
:1005D0001927002A08BF032701385F43B0FBF7F74C
:1005E00001373F0509D052B119225A43B0FBF2F04E
:1005F0000422013062F31F3008E0012008E003EB21
:100600004302B0FBF2F001306FF31F3040F40040C2
:1006100040EA0C00C8610868D4E9072320F0C00054
:10062000104318430860886848F2FF3204F10C0751
:1006300090438CCF18431043A6698860C86820F0A7
:10064000FF0038433043C860086840F0010008608C
:1006500000202021206484F83D10206384F83E00AF
:1006600001B0F0BD2DE9F04F85B00446002098465A
:1006700092468B460490FFF71DFF94F83D10202909
:1006800009D105462068806910F0020007D194F86E
:100690003C00012828D1022005B0BDE8F08F0126DA
:1006A00086EA500707E000BF2068806910F002006A
:1006B00086EA5007EBD0FFF7FDFE401B1A28F3D364
:1006C000206880698007EFD500202021206384F80E
:1006D0003D1084F83E00216C41F020012164F907AF
:1006E00084F83C00D3D1D6E70121226884F83C107D
:1006F0001368DDE90F090E99DB0703D1136843F096
:1007000001031360136823F400631360222284F84A
:100710003D20402284F83E200022226461626085F0
:10072000608D594620850020CFF6FF70E06220469C
:1007300052464346CDE9009500F02CFE18B1012049
:1007400005B0BDE8F08F208D022826D001280ED0FC
:10075000002838D100200390206841690391816905
:1007600003910399016841F40071016037E020684A
:10077000016821F480610160EFF3108072B60020FF
:10078000039020684169039181690391039901688D
:1007900041F40071016062B621E02068016841F413
:1007A00000610160EFF3108072B6002003902068B2
:1007B00041690391816903910399016821F4806182
:1007C000016062B60BE02068016841F4806101605D
:1007D0000021039141690391806903900398218D61
:1007E000002900F0218140F200064FF0010A09F1D2
:1007F0000107C2F200064FF023082068032950F8D1
:10080000142F1ED8022952D001296CD151060BD5C4
:10081000F9E020684069400640F12681206850F8E0
:10082000141F490600F1EF800168C90600F1038139
:10083000FFF740FEB9F1000FEBD0401B4845EDD962
:10084000E7E7510626D52068616A00690870606A8A
:10085000228D0130013A606222852168638D013B5F
:1008600063854B695B0740F1DB8092B2032A03D1B9
:100870000A6822F480620A6009690170C7E000BF5B
:1008800020684069400640F1EF80206850F8141F4E
:100890004906D8D40168C90600F1CD80FFF70AFEE9
:1008A000B9F1000FECD0401B4845EED9E8E712F053
:1008B000040046D18AEA900B0AE0206840694007AC
:1008C0002ED52068406910F004008AEA900B38D1D8
:1008D000002FF6D0FFF7EEFDB9F1000FEDD0401B71
:1008E0004845EED9E9E7B34612F004004FD18AEA51
:1008F00090060AE020684069400738D520684069C2
:1009000010F004008AEA900641D1002FF6D0FFF7DC
:10091000D1FDB9F1000FEDD0401B4845EED9E9E714
:1009200000212020216384F83D0084F83E10206CD3
:1009300040F0200020645FEACB7084F83C107FF424
:10094000FEAEEFF3108072B62068616A026842F46E
:100950000072026000690870606A218D0130606277
:10096000481E2085608D0138608562B64BE000210D
:100970002020216384F83D0084F83E10206C40F074
:1009800020002064F00784F83C107FF4D8AE206883
:100990004BF289520168C1F2F84221F48061016092
:1009A000EFF3108072B62068616A00695E460870D5
:1009B000606A218D0130013960622185618D0139C4
:1009C0006185DBF80010C908A1FB0212110A01FBC6
:1009D00008F104910499013904910499B9B321688B
:1009E0004A695207F6D50A6842F400720A6009693A
:1009F0000170606A218D01306062481E2085608D23
:100A00000138608562B62068616A00690870606AB2
:100A1000218D01306062481E2085608D013860851F
:100A2000218D00297FF4E9AE202084F83D000020CC
:100A300084F83E0024E06FF01001016000202021C6
:100A4000206384F83D1084F83E00206C16E00020FE
:100A50002021206384F83D1084F83E00206C40F093
:100A60002000206462B60AE000202021206384F880
:100A70003D1084F83E00206C40F0200020640120EE
:100A8000002184F83C1005B0BDE8F08F2DE9F04F4F
:100A900083B0994692468B460446FFF70BFD94F8C7
:100AA0003D10202909D105462068806910F0020018
:100AB00007D194F83C00012828D1022003B0BDE8FA
:100AC000F08F012787EA500607E000BF20688069A1
:100AD00010F0020087EA5006EBD0FFF7EBFC401B5A
:100AE0001A28F3D3206880698007EFD500202021E1
:100AF000206384F83D1084F83E00216C41F0200111
:100B00002164F10784F83C00D3D1D6E701212268A3
:100B100084F83C101368DDE90D080C99DB0703D15C
:100B2000136843F001031360136823F40063136038
:100B3000212284F83D20402284F83E2000222264B5
:100B400061626085608D594620850020CFF6FF7078
:100B5000E062204652464B46CDE9008500F052FD4A
:100B600000286AD1208DC0B308F1010604E000BF5F
:100B70002068406900064BD5206850F8141F09060C
:100B80000DD4016849053ED4002EF5D0FFF792FC44
:100B9000B8F1000FECD0401B4045EDD9E8E7606AA2
:100BA0002168034613F8012B0A61228D6362531EEC
:100BB0002385678D013F67854F697F070AD51B0431
:100BC00008D0437802300B616062901E2085608DF2
:100BD00001386085208D0028CED1204641462A4626
:100BE00000F008FE08BB2068016841F40071016054
:100BF000202084F83D00002084F83E0084F83C006A
:100C000003B0BDE8F08F6FF480610160042000E064
:100C1000202000212022216384F83D2084F83E100A
:100C2000226C1043206484F83C10206C042804D10A
:100C30002068016841F400710160012003B0BDE843
:100C4000F08F000010B540F60044C4F201040068C3
:100C5000A4F53841884218BF10BD41F21C00C4F20F
:100C60000200016821F40011016020462021FFF7F5
:100C700089FA20461021BDE81040FFF783BA000032
:100C800010B586B0006845F20041C4F20001884208
:100C90004FF00000CDE90400CDE9020002D006B01B
:100CA00010BD00BF41F21804C4F20204206840F0F5
:100CB00008002060206800F00800019001980420DE
:100CC000C4F20100016841F0E06141F002010160FD
:100CD00030200290122003900320059040F600403F
:100CE000C4F2010002A9FFF7DDFA606840F40010C9
:100CF0006060606800F400100190019806B010BDBB
:100D000040F2040040F26C01C2F20000C2F20001A5
:100D100000780A68104408607047000080B542F20D
:100D20000000C4F20200016841F0100101600320DC
:100D300000F07EF8002000F005F800F02BF800200D
:100D400080BD0000B0B540F20402C2F2000240F2E1
:100D500000011278C2F200014FF47A730968B3FB04
:100D6000F2F20446B1FBF2F1084600F0FBFA0F2C58
:100D70004FF001050CD858B94FF0FF302146002242
:100D8000002500F029F840F20800C2F200000460DB
:100D90002846B0BD82B041F21800C4F202000168DA
:100DA000022241F001010160016801F0010101919D
:100DB0000199416841F080514160406800F08050E5
:100DC000009000980420C4F20100016862F31A61E7
:100DD000016002B07047000010B54EF60C5CCEF218
:100DE000000CDCF80030C3F3022E8EF00704042C54
:100DF00028BF0424BEF103034FF0FF3E0EFA04F4B3
:100E000038BF0023A14399400EFA03F39A431143DC
:100E100000F1604200F00F03090102F56442043B57
:100E20006344002848BF03F10C02117010BD00009C
:100E30004EF60C51CEF200010A684FF6FF031A403D
:100E400060F30A2242F0806040F0FD700860704755
:100E5000002804BF012070472DE9F04381B042F221
:100E60000008C4F202080446D8F800000D4600F05D
:100E7000070081420CD9D8F8000020F00700284371
:100E8000C8F80000D8F8000000F00700A8426BD1B5
:100E9000206841F204098107C4F2020917D541070D
:100EA00005D5D9F8001041F4E061C9F80010010738
:100EB00005D5D9F8001041F46051C9F80010D9F8EF
:100EC0000010A26821F0F0011143C9F80010C0071A
:100ED00041D1D8F8000000F0070085420CD2D8F8C4
:100EE000000020F007002843C8F80000D8F80000F0
:100EF00000F00700A84237D12068410707D5D9F88C
:100F00000010E26821F4E0611143C9F80010000705
:100F100008D5D9F80000216920F4605040EAC100EA
:100F2000C9F80000D9F8002002F00C00082841F2AE
:100F30000020C0F27A0049D142F68213C2F3834105
:100F4000C0F60003595CD20334D440F60010C0F25E
:100F50003D0048433AE0606859F8041C022807D075
:100F6000012824D1890305D4012001B0BDE8F08314
:100F70008901F9D5D9F8001021F003010843C9F817
:100F80000000FFF797FA064641F28837D9F80000CB
:100F9000616800F00C00B0EB810F9AD0FFF78AFA7D
:100FA000801BB842F2D9032001B0BDE8F083890765
:100FB000DAD5DFE7D9F8002042F68013C2F34042C9
:100FC000C0F600039A5C4843B0FBF2F0D9F8001079
:100FD00042F66812C1F30311C0F60002515C40F200
:100FE000000220FA01F140F20800C2F2000000689D
:100FF000C2F200021160FFF7A5FE002001B0BDE8BB
:10100000F083000040F2000041F20401C2F200004F
:10101000C4F202010068096842F67812C1F30221A5
:10102000C0F60002515CC84070470000002804BFB1
:10103000012070472DE9F04182B00446007841F26A
:101040000006C007C4F2020647D0706800F00C002A
:10105000042808D1306880033FD56068E8BB0120D0
:1010600002B0BDE8F081706800F00C00082802D1E1
:101070007068C003EED4656830682DB1B5F5A02F57
:1010800009D0B5F5803F0AD020F480303060306858
:1010900020F4802005E040F480203060306840F487
:1010A00080303060FFF706FA002D054612D000BFF1
:1010B0003068800311D4FFF7FDF9401B6428F7D98D
:1010C00016E100BFFFF7F6F9401B64284FF003005C
:1010D00000F2D88030688003F4D42078800719D5D6
:1010E000706810F00C0F07D0706800F00C00082832
:1010F00027D17068C00324D43068800703D52069E5
:10110000012840F0A6803068616920F0F80040EACC
:10111000C1003060207800074ED5A06938B30020A8
:10112000C4F242200121C0F88014FFF7C3F905463C
:10113000706A80072DD4FFF7BDF9401B0228F7D94C
:10114000D6E02069002840F20000C4F2422000F0FE
:10115000A88001210160FFF7ADF9054630688007DE
:10116000D1D4FFF7A7F9401B0228F7D9C0E000202F
:10117000C4F242200021C0F88014FFF79BF9054615
:10118000706A800718D5FFF795F9401B0228F7D938
:10119000AEE040F20000C2F20000006844F6D35115
:1011A000C1F26201A0FB0101480A019000BF019851
:1011B000411E00280191F9D12078400717D4E56934
:1011C0008DB1706800F00C00082846D1012D40D088
:1011D0007068216A00F480328A423AD1616A00F470
:1011E0007010884235D1002002B0BDE8F081F0696E
:1011F0005FEAC00808D4F06940F08050F061F069FF
:1012000000F080500090009847F20007C4F20007F9
:101210003868C0050FD4386840F480703860FFF734
:1012200049F905463868C00505D4FFF743F9401B66
:101230006428F7D95CE0E568306A1DB1052D41D01E
:10124000012D43D020F001003062306A20F004000C
:101250003EE0012002B0BDE8F0810027C4F2422741
:1012600000203866FFF726F9022D05460ED100BF93
:101270003068800153D5FFF71DF9401B02284FF05D
:101280000300F5D902B0BDE8F08100BF30688001ED
:10129000A9D5FFF70FF9401B02284FF00300F5D93D
:1012A000F0E700210160FFF705F905463068800787
:1012B0007FF530AFFFF7FEF8401B02284FF0030028
:1012C000F4D9DFE740F004003062306A40F00100FA
:1012D0003062FFF7EFF8002D054641F2883712D053
:1012E000306A800712D4FFF7E5F8401BB842F7D9FF
:1012F000032002B0BDE8F081FFF7DCF8401BB842E4
:101300004FF00300BED8306A8007F5D4B8F1000F63
:101310003FF555AFF06920F08050F0614FE7206A4B
:10132000B0F5803F05D17168A26821F40031114306
:1013300071607168626A21F474111143084370602E
:1013400001203866FFF7B6F8044600BF3068800118
:101350003FF549AFFFF7AEF8001B02284FF003003E
:10136000F4D98FE7411E0020B0EB116F1CBF0120A4
:1013700070474EF21002CEF2000251604EF6235139
:10138000CEF20001F0230B700721906011607047CE
:10139000FEE700002DE9F04F83B004460068DDF859
:1013A00034B00C9E0768994647F480670760076869
:1013B000904647F48073036040698A4610F001004C
:1013C0002AD180F00107751C0BE000BF206840693E
:1013D000C00711D02068406910F0010080F00107BB
:1013E0001AD1002DF6D0FFF765F8002EEED0A0EB55
:1013F0000B00B042EED9E9E700202021206384F8F9
:101400003D1084F83E00216C41F020012164F90771
:1014100084F83C0040F0B78020680AF0FE0AC0F86B
:1014200010A0416989072CD44169490514D4771C5F
:101430005FB1FFF73FF81EB1A0EB0B00B04204D93B
:1014400020684069800740F1D180206841698907A0
:1014500017D441694905EBD5016841F40071016079
:101460006FF48061416100202021206384F83D10E9
:1014700084F83E00216C41F00401216484F83C00B2
:10148000B0E000200290206850F8141F02914168DB
:1014900002910299016809061AD4771C0AE000BF7C
:1014A00020684069000640F18880206850F8141FC9
:1014B00009060DD40168490551D4002FF5D0FEF777
:1014C000F9FF002EECD0A0EB0B00B042EDD9E7E71E
:1014D0002068B9F1010F21D04FEA1821016150F8BD
:1014E000141F090619D4771C09E000BF2068406961
:1014F000000662D5206850F8141F09060DD4016853
:1015000049052CD4002FF5D0FEF7D4FF002EEDD0E6
:10151000A0EB0B00B042EDD9E8E720685FFA88F154
:101520000161206850F8141F09061DD4771C08E0DB
:1015300020684069000640D5206850F8141F09064D
:1015400012D4016849050AD4002FF5D0FEF7B2FF86
:10155000002EEDD0A0EB0B00B042EDD9E8E76FF420
:1015600080610160042029E0206800220168334680
:1015700041F48071016020464FF00111CDF800B0B8
:1015800000F072F950B120680068C00544BF4FF404
:1015900000702064032003B0BDE8F08F25684AF096
:1015A00001070221C0F20101204632465B462F614D
:1015B00003B0BDE8F04F00F09BB9202000212022AD
:1015C000216384F83D2084F83E10226C104320648F
:1015D00084F83C10206C042804D12068016841F490
:1015E00000710160012003B0BDE8F08F00202021D0
:1015F000206384F83D1084F83E00216C41F0200106
:101600003BE700002DE9F04F81B0044600689046AA
:101610000268DDF82CA042F48072026040690A9EE4
:10162000994610F001008B4634D180F00105771CFB
:101630000BE000BF20684069C00711D020684069F6
:1016400010F0010080F0010524D1002FF6D0FEF744
:1016500031FF002EEED0A0EB0A00B042EED9E9E750
:1016600000202021206384F83D1084F83E00216C86
:1016700041F020012164E90784F83C000AD0206889
:101680000068C00544BF4FF400702064032001B01F
:10169000BDE8F08F20680BF0FE0101614169890708
:1016A0002DD44169490515D4751C00BF5DB1FEF705
:1016B00001FF1EB1A0EB0A00B04204D920684069C6
:1016C000800740F18C8020684169890717D44169FF
:1016D0004905EBD5016841F4007101606FF4806148
:1016E000416100202021206384F83D1084F83E00F1
:1016F000216C41F00401216484F83C006BE000207F
:101700000090206850F8141F0091416800910099E2
:101710000168090619D4751C09E000BF20684069FA
:10172000000643D5206850F8141F09060DD401683F
:1017300049052ED4002DF5D0FEF7BCFE002EEDD0CD
:10174000A0EB0A00B042EDD9E8E72068B9F1010F3B
:1017500025D04FEA1821016150F8141F09061DD445
:10176000751C08E02068406900061FD5206850F805
:10177000141F090612D4016849050AD4002DF5D0BA
:10178000FEF798FE002EEDD0A0EB0A00B042EDD996
:10179000E8E76FF480610160042008E020685FFAE8
:1017A00088F10161002001B0BDE8F08F2020002108
:1017B0002022216384F83D2084F83E10226C1043DF
:1017C000206484F83C10206C042804D1206801684F
:1017D00041F400710160012001B0BDE8F08F0020EC
:1017E0002021206384F83D1084F83E00216C41F0F4
:1017F000200180E7F0B581B004460068154650F836
:10180000143F5A0718D40E464F1C08E02068406960
:10181000400719D5206850F8141F49070CD40168F7
:1018200049050CD4002FF5D0FEF744FE002EEDD074
:10183000401BB042EED9E9E7002001B0F0BD6FF4E3
:1018400080610160042000E020200021202221632B
:1018500084F83D2084F83E10226C1043206484F804
:101860003C10012001B0F0BD2DE9F047DDF82080EB
:1018700099461646044601F47F0018278DB203F1FD
:10188000010AB0F5803F08BF142708E02068C0595E
:101890002840401BB0FA80F04009864218D02068EA
:1018A000C0592840401BB0FA80F0400986420CD154
:1018B000BAF1000FF3D0FEF7FDFDB9F1000FE5D04E
:1018C000A0EB08004845EAD9E0E70020BDE8F08732
:1018D00000202021206384F83D1084F83E00216C14
:1018E00041F02001216484F83C000120BDE8F0872C
:1018F0002DE9F04104460068984643698FB203EA37
:101900000701B94202D10020BDE8F08141694905D3
:1019100017D41646551C00BF5DB1FEF7CBFD1EB1B6
:10192000A0EB0800B04204D9206840693840B842B2
:101930001ED1206841693940B942E4D04169490566
:10194000EAD5016841F4007101606FF48061416182
:10195000042000212022216384F83D2084F83E10D9
:10196000226C10432064012084F83C10BDE8F08113
:101970002020EEE7FEE70000FEE7000080B540F221
:101980000450152100F046FD40F20450FF2100F004
:1019900041FD40F20450152100F03CFD40F204509E
:1019A00040F2FB1100F036FD1E20FEF7D7FB40F29F
:1019B0000450152100F02EFD40F20450FF2100F0EC
:1019C00029FD40F20450152100F024FD40F204509E
:1019D00040F6D30100F01EFD40F20450152100F046
:1019E00019FD40F2045040F6D46100F013FD40F2BE
:1019F0000450052100F00EFD40F20450112100F0CA
:101A000009FD7820BDE88040FEF7A8BB70470000C4
:101A100080B50420042100F0FDFC02204FF47C512D
:101A200000F0F8FC0220002100F0F4FC0620002168
:101A300000F0F0FC162040F63F7100F0EBFC48F29D
:101A40000250FF2100F058FD48F20B50FF2100F03A
:101A500053FD142040F63F7100F0DCFC48F21250B8
:101A6000FE2100F049FD48F21B50FD2100F044FD2D
:101A700048F21040032100F03FFD48F213403F219F
:101A800000F03AFD48F22040072100F035FD48F211
:101A9000F040312100F030FD48F2F440012100F027
:101AA0002BFD48F240504FF4965100F0B3FC48F241
:101AB0003060002100F020FD48F2316040F25371A7
:101AC00000F0A8FC48F27060022100F015FD48F615
:101AD0000C204FF4965100F09DFC48F2E05001219B
:101AE00000F00AFD48F2E3504FF4807100F092FCE0
:101AF0004FF40C40002100F0FFFC48F60140FF21AC
:101B000000F0FAFC48F60240FF2100F0F5FC48F630
:101B10000340FF2100F0F0FC48F60440FF2100F0F4
:101B2000EBFC48F60540FF2100F0E6FC48F60640D5
:101B3000FF2100F0E1FC48F60740002100F0DCFC4A
:101B400048F60840522100F0D7FC48F609406221CF
:101B500000F0D2FC48F60A40882100F0CDFC48F69F
:101B60000B40882100F0C8FC48F60C40002100F032
:101B7000C3FC48F60D40882100F0BEFC48F60E403C
:101B8000882100F0B9FC48F60F40882100F0B4FC31
:101B900048F610401C2100F0AFFC48F6114015211A
:101BA00000F0AAFC48F61240012100F0A5FC48F61E
:101BB0001340032100F0A0FC48F61440802100F0FF
:101BC0009BFC48F61540002100F096FC48F61640B4
:101BD000002100F091FC48F61740782100F08CFCC1
:101BE00048F618400A2100F087FC48F619400D21FC
:101BF00000F082FC48F61A40C92100F07DFC48F64E
:101C00001B40A02100F078FC48F61C40572100F052
:101C100073FC48F61D40472100F06EFC48F61E405C
:101C2000982100F069FC48F61F40272100F064FC71
:101C300048F62040122100F05FFC48F62140482180
:101C400000F05AFC48F622404C2100F055FC48F6C2
:101C50002340002100F050FC48F62440002100F011
:101C60004BFC48F62540002100F046FC48F6264093
:101C7000012100F041FC48F62740012100F03CFC26
:101C800048F62840012100F037FC48F629400121A0
:101C900000F032FC48F62A40012100F02DFC48F605
:101CA0002B40012100F028FC48F62C40012100F0D7
:101CB00023FC48F62D40012100F01EFC48F62E4082
:101CC000012100F019FC48F62F40012100F014FC1E
:101CD00048F63040012100F00FFC48F63140012168
:101CE00000F00AFC48F63240012100F005FC48F6FD
:101CF0003340012100F000FC48F63440012100F09F
:101D0000FBFB48F63540012100F0F6FB48F6364073
:101D1000282100F0F1FB48F637403C2100F0ECFBB5
:101D200048F63840382100F0E7FB48F63940FA2100
:101D300000F0E2FB48F63A40402100F0DDFB48F6B7
:101D40003B40802100F0D8FB48F63C400C2100F0DD
:101D5000D3FB48F63D40702100F0CEFB48F63E40F4
:101D6000642100F0C9FB48F63F40322100F0C4FB7B
:101D700048F64040442100F0BFFB48F641400021B6
:101D800000F0BAFB48F64240C02100F0B5FB48F62F
:101D90004340782100F0B0FB48F64440002100F0B9
:101DA000ABFB48F64540002100F0A6FB48F6464054
:101DB000002100F0A1FB48F64740182100F09CFBF1
:101DC00048F64840282100F097FB48F649403C215E
:101DD00000F092FB48F64A40382100F08DFB48F6AF
:101DE0004B40FA2100F088FB48F64C40402100F0BF
:101DF00083FB48F64D40802100F07EFB48F64E40C4
:101E00000C2100F079FB48F64F40702100F074FB84
:101E100048F65040642100F06FFB48F651403221F3
:101E200000F06AFB48F65240442100F065FB48F69A
:101E30005340002100F060FB48F65440C02100F000
:101E40005BFB48F65540782100F056FB48F65640BB
:101E5000002100F051FB48F65740002100F04CFBF8
:101E600048F65840002100F047FB48F65940182139
:101E700000F042FB48F65A40002100F03DFB48F6D6
:101E80005B40002100F038FB48F65C40002100F088
:101E900033FB48F65D40FC2100F02EFB48F65E4027
:101EA000002100F029FB48F65F40542100F024FB9C
:101EB00048F660406F2100F01FFB48F66140732137
:101EC00000F01AFB48F66240682100F015FB48F666
:101ED0006340692100F010FB48F66440622100F085
:101EE0000BFB48F66540612100F006FB48F66640B2
:101EF0002D2100F001FB48F66740552100F0FCFA67
:101F000048F66840482100F0F7FA48F66940322167
:101F100000F0F2FA48F66A40442100F0EDFA48F683
:101F20006B400A2100F0E8FA48F66C40002100F00E
:101F3000E3FA48F66D40002100F0DEFA48F66E4004
:101F4000002100F0D9FA48F66F40FD2100F0D4FAE4
:101F500048F67040002100F0CFFA48F67140142195
:101F600000F0CAFA48F67240782100F0C5FA48F647
:101F70007340012100F0C0FA48F67440FF2100F0E0
:101F8000BBFA48F675401D2100F0B6FA48F67640D7
:101F9000002100F0B1FA48F677400A2100F0ACFACF
:101FA00048F67840202100F0A7FA48F67940202131
:101FB00000F0A2FA48F67A40202100F09DFA48F697
:101FC0007B40202100F098FA48F67C40202100F068
:101FD00093FA48F67D40202100F08EFA48F67E40C4
:101FE000012100F089FA48F67F40712100F084FA5F
:101FF00048F68040022100F07FFA48F68140032134
:1020000000F07AFA48F682401A2100F075FA48F694
:102010008340712100F070FA48F68440472100F0B7
:102020006BFA48F68540C62100F066FA48F686400D
:10203000462100F061FA48F68740462100F05CFA3C
:1020400048F68840462100F057FA48F68940462174
:1020500000F052FA48F68A40462100F04DFA48F660
:102060008B40462100F048FA48F68C40232100F0CE
:1020700043FA48F68D40092100F03EFA48F68E40BA
:10208000072100F039FA48F68F40012100F034FAB8
:1020900048F69040832100F02FFA48F69140012144
:1020A00000F02AFA48F69240002100F025FA48F69E
:1020B0009340002100F020FA48F69440652100F09A
:1020C0001BFA48F69540032100F016FA48F69640B0
:1020D0000C2100F011FA48F69740002100F00CFAAC
:1020E00048F69840102100F007FA48F69940002180
:1020F00000F002FA48F6FF40932100F0FDF948F2A3
:102100004350022100F0F8F948F24450102100F049
:10211000F3F94FF40640002100F0EEF948F20260B6
:10212000F32100F0E9F948F20360022100F0E4F93C
:1021300048F204600C2100F0DFF948F20660052146
:1021400000F0DAF948F20760002100F0D5F948F212
:102150005260022100F0D0F944F6BA11C0F20C210D
:1021600048F2716000F090F94BF28901C0F2E11180
:1021700048F2756000F088F948F28060002100F0B4
:10218000BBF9162040F61F7100F044F9022001212E
:10219000BDE8804000F03EB980B54FF47A70FDF79D
:1021A000DDFF042040F6344100F034F902204FF402
:1021B000905100F02FF90220002100F02BF948F691
:1021C0000220422100F098F94FF48470012100F0C0
:1021D0005BF94FF48670012100F056F94FF4287036
:1021E000012100F051F94FF42B7049F2CF0100F0BA
:1021F0004BF90120FDF7B2FF4FF42870032100F0E6
:1022000043F94FF48C70142100F03EF94FF49070B4
:1022100041F2707100F038F94FF49270002100F033
:1022200033F94FF4947040F2011100F02DF94FF49E
:102230008E70012100F028F94FF4A060042100F015
:10224000E9F84FF48870162100F01EF94FF444703D
:10225000162100F019F9FFF791FB4FF4A0404FF45D
:10226000807100F0D7F845F20C00002100F0D2F8A0
:1022700045F20E0040F21B2100F0CCF84FF4A140D3
:102280004FF4807100F0C6F845F28C004FF40771EE
:1022900000F0C0F845F28E0040F2374100F0BAF885
:1022A0004FF4E140802100F0B5F845F2080040F617
:1022B000A84100F0AFF845F2880040F6A84100F0D0
:1022C000A9F848F20250FF2100F016F948F20B502D
:1022D000FF2100F011F9142040F63F7100F09AF848
:1022E000162040F63F5100F095F8042040F63741A3
:1022F00000F090F80620002100F08CF84FF4887070
:10230000062100F0C1F84FF44470062100F0BCF83B
:10231000C820FDF723FF40F20450052100F07AF8B1
:1023200040F20450292100F075F80120BDE88040FA
:10233000FDF714BF70470000FEF7E2BC70470000D5
:10234000FEE700002DE9F04184B0044640F2180099
:102350004FF0FF0802270DF10E06C2F200001E2109
:1023600022460223CDE90067CDF80880FEF77AF90E
:10237000022815D140F21805C2F200052846FEF7E2
:102380009FF82846FEF7B6F828461E21224602236B
:10239000CDE90067CDF80880FEF764F90228EDD09A
:1023A000BDF80E0004B0BDE8F08100002DE9F04159
:1023B00084B0044640F218004FF0FF0801270DF1E9
:1023C0000F06C2F200001E2122460223CDE900675B
:1023D000CDF80880FEF746F9022815D140F218051D
:1023E000C2F200052846FEF76BF82846FEF782F891
:1023F00028461E2122460223CDE90067CDF8088039
:10240000FEF730F90228EDD09DF80F0004B0BDE8CA
:10241000F08100002DE9F04385B0044640F2180039
:10242000ADF812104FF0FF084FF002090DF112063F
:10243000C2F200001E2122460223CDE90069CDF838
:102440000880FEF723FB40F27007C2F20007022863
:10245000387016D140F21805C2F200052846FEF782
:102460002FF82846FEF746F828461E21224602236A
:10247000CDE90069CDF80880FEF708FB0228387026
:10248000ECD005B0BDE8F0832DE9F04385B00446FB
:1024900040F2180004914FF0FF084FF0040904AE19
:1024A000C2F200001E2122460223CDE90069CDF8C8
:1024B0000880FEF7EBFA40F27007C2F2000702282C
:1024C000387016D140F21805C2F200052846FDF713
:1024D000F7FF2846FEF70EF828461E212246022363
:1024E000CDE90069CDF80880FEF7D0FA02283870EF
:1024F000ECD005B0BDE8F0832DE9F04385B004468B
:1025000040F218008DF813104FF0FF084FF001094A
:102510000DF11306C2F200001E2122460223CDE96E
:102520000069CDF80880FEF7B1FA40F27007C2F2F8
:1025300000070228387016D140F21805C2F20005D3
:102540002846FDF7BDFF2846FDF7D4FF28461E218B
:1025500022460223CDE90069CDF80880FEF796FAFD
:1025600002283870ECD005B0BDE8F08370B50220C9
:10257000002148F22055FFF74DFF0120FDF7EEFD49
:102580001420FFF7DFFE40F21006C2F200068106BB
:10259000B08010D51A20FFF7D5FEC107F0800AD011
:1025A000162040F63F51FFF735FF05F12A0080B2B3
:1025B0000121FFF7A1FFB088800572D5A5F11500B4
:1025C00080B2FFF7F3FE8107B0706AD548F2205061
:1025D000FFF7ECFE41B2B1F1FF3F707030DC40F626
:1025E0000044C4F20104A4F580604FF4007101229C
:1025F000FDF75AFFC820FDF7B1FD20464FF40071EA
:102600000122FDF751FFC820FDF7A8FD20464FF439
:1026100000710022FDF748FF0A20FDF79FFD2046CC
:102620004FF400710122FDF73FFF6420FDF796FD96
:10263000FFF7B2FD204640210122FDF735FF7078FB
:1026400000F0810001282CD140F60044C4F20104BE
:10265000204640210022FDF727FF40F204500521CB
:10266000FFF7D8FE40F204502821FFF7D3FE642084
:10267000FDF774FD042040F63441FFF7CBFE162031
:1026800040F63F51FFF7C6FEA4F580604FF400719D
:102690000022FDF709FF20464FF400710022FDF7EC
:1026A00003FFA5F11E0080B2FFF780FEC107307066
:1026B00008BF70BD48F22050FFF778FEC107707068
:1026C00042D140F60044C4F20104204640210022D9
:1026D000FDF7EAFEA4F580604FF400710022FDF7DB
:1026E000E3FE20464FF400710022FDF7DDFE0A20D4
:1026F000FDF734FD40F204500521FFF78BFE40F258
:1027000004502821FFF786FE6420FDF727FD40F2E4
:1027100004500521FFF77EFE40F204501021FFF720
:1027200079FEC820FDF71AFD042040F63441FFF77A
:1027300071FE162040F61F71FFF76CFE022001218A
:10274000BDE87040FFF766BE162040F63F51FFF728
:1027500061FE05F12A0080B20121BDE87040FFF75B
:10276000CBBE000090B0FEF7D9FA00240120CDE9DD
:102770000B44CDE9094406900A904FF4E0104FF461
:10278000803102250F9006A8CDE90714CDE90D513F
:10279000FEF74CFC20B1EFF3108072B6FEE700BFED
:1027A0000F20CDE901054FF48060CDE9040401A8B4
:1027B00002210394FEF74CFB20B1EFF3108072B6B8
:1027C000FEE700BF002741F21800CDE90877CDE908
:1027D0000677C4F20200016840F6004841F020018B
:1027E00001600168C4F2010801F020010191019922
:1027F0000168A8F5806541F00401016001680022CC
:1028000001F0040101910199016841F008010160A2
:10281000006848F6FF7100F0080001900198284612
:10282000FDF742FE40464FF4806101220124FDF78E
:102830003BFE40464FF433610022FDF735FE48F67B
:10284000DF7006AECDE906044FF002092846314696
:102850000894CDF82490FDF725FD2020CDE906044D
:1028600028463146CDE90849FDF71CFD4FF4C0600C
:10287000CDE9060403200990404631460894FDF74F
:1028800011FD4FF4136006A981E8910240463146DC
:10289000FDF708FD4FF44040CDE9060740463146BC
:1028A0000894FDF7FFFC4FF48050CDE90607284659
:1028B00031460897FDF7F6FC40F21800A8F53841BC
:1028C000C2F2000048F2A0624FF48043C0F201025D
:1028D00080E88600C0E90373C0E90577C0E907779F
:1028E000FDF708FE20B1EFF3108072B6FEE700BFDF
:1028F00000F002F8FEE700004FF4FA70FDF72EFC3E
:1029000040F60004C4F2010420464FF400410022C6
:10291000FDF7CAFD0A20FDF721FC20464FF40041D7
:102920000122FDF7C1FD4FF4E170FDF717FC2046D1
:102930004FF400410122FDF7B7FD6420FDF70EFCC6
:10294000FFF766F8FFF712FEFCE702E008C8121F67
:1029500008C1002AFAD170477047002001E001C188
:10296000121F002AFBD17047000000000000000089
:102970000102030406070809000000000102030425
:10298000010202030405060708090A0B0C0D0E0FCD
:1029900010100000B82900080000002010000000FE
:1029A0004A290008C8290008100000206804000017
:1029B0005A290008000000000024F4000100000073
:0829C0001000000000000000FF
:04000005080000ED02
:00000001FF
